{
  "contractName": "MyContract",
  "abi": [
    {
      "constant": true,
      "inputs": [],
      "name": "getData",
      "outputs": [
        {
          "internalType": "uint256",
          "name": "",
          "type": "uint256"
        }
      ],
      "payable": false,
      "stateMutability": "view",
      "type": "function"
    },
    {
      "constant": false,
      "inputs": [
        {
          "internalType": "uint256",
          "name": "_data",
          "type": "uint256"
        }
      ],
      "name": "setData",
      "outputs": [],
      "payable": false,
      "stateMutability": "nonpayable",
      "type": "function"
    }
  ],
  "bytecode": "0x608060405234801561001057600080fd5b5060c68061001f6000396000f3fe6080604052348015600f57600080fd5b506004361060325760003560e01c80633bc5de301460375780635b4b73a9146053575b600080fd5b603d607e565b6040518082815260200191505060405180910390f35b607c60048036036020811015606757600080fd5b81019080803590602001909291905050506087565b005b60008054905090565b806000819055505056fea265627a7a72315820530bc3806c6d569b7ade6e93877e54896a87cd11041fa56dd9bab0c22f8dbe0d64736f6c63430005100032",
  "source": "pragma solidity >=0.4.25 <0.7.0;\r\n\r\ncontract MyContract {\r\n    uint data;\r\n\r\n    function getData() external view returns(uint) {\r\n        return data;\r\n    }\r\n\r\n    function setData(uint _data) external {\r\n        data = _data;\r\n    }\r\n\r\n    function setDataPrivate(uint _data) private {\r\n        data = _data + 10;\r\n    }\r\n}",
  "sourcePath": "c:\\web3\\MetaCoin\\contracts\\MyContract.sol",
  "compiler": {
    "name": "solc",
    "version": "0.5.16+commit.9c3226ce.Emscripten.clang"
  },
  "schemaVersion": "3.4.3",
  "updatedAt": "2021-09-06T20:34:31.535Z",
  "networkType": "ethereum",
  "devdoc": {
    "methods": {}
  },
  "userdoc": {
    "methods": {}
  }
}